{
  "_format": "hh-sol-artifact-1",
  "contractName": "socivaContract",
  "sourceName": "contracts/socivaContract.sol",
  "abi": [
    {
      "anonymous": false,
      "inputs": [
        {
          "indexed": false,
          "internalType": "address",
          "name": "recipient",
          "type": "address"
        },
        {
          "indexed": false,
          "internalType": "uint256",
          "name": "sivId",
          "type": "uint256"
        }
      ],
      "name": "AddSiv",
      "type": "event"
    },
    {
      "anonymous": false,
      "inputs": [
        {
          "indexed": false,
          "internalType": "uint256",
          "name": "sivId",
          "type": "uint256"
        },
        {
          "indexed": false,
          "internalType": "bool",
          "name": "isDeleted",
          "type": "bool"
        }
      ],
      "name": "DeleteSiv",
      "type": "event"
    },
    {
      "inputs": [
        {
          "internalType": "string",
          "name": "sivText",
          "type": "string"
        },
        {
          "internalType": "bool",
          "name": "isDeleted",
          "type": "bool"
        }
      ],
      "name": "addSiv",
      "outputs": [],
      "stateMutability": "nonpayable",
      "type": "function"
    },
    {
      "inputs": [
        {
          "internalType": "uint256",
          "name": "sivId",
          "type": "uint256"
        },
        {
          "internalType": "bool",
          "name": "isDeleted",
          "type": "bool"
        }
      ],
      "name": "deleteSiv",
      "outputs": [],
      "stateMutability": "nonpayable",
      "type": "function"
    },
    {
      "inputs": [],
      "name": "getAllSivs",
      "outputs": [
        {
          "components": [
            {
              "internalType": "uint256",
              "name": "id",
              "type": "uint256"
            },
            {
              "internalType": "address",
              "name": "username",
              "type": "address"
            },
            {
              "internalType": "string",
              "name": "sivText",
              "type": "string"
            },
            {
              "internalType": "bool",
              "name": "isDeleted",
              "type": "bool"
            }
          ],
          "internalType": "struct socivaContract.Siv[]",
          "name": "",
          "type": "tuple[]"
        }
      ],
      "stateMutability": "view",
      "type": "function"
    },
    {
      "inputs": [],
      "name": "getMySivs",
      "outputs": [
        {
          "components": [
            {
              "internalType": "uint256",
              "name": "id",
              "type": "uint256"
            },
            {
              "internalType": "address",
              "name": "username",
              "type": "address"
            },
            {
              "internalType": "string",
              "name": "sivText",
              "type": "string"
            },
            {
              "internalType": "bool",
              "name": "isDeleted",
              "type": "bool"
            }
          ],
          "internalType": "struct socivaContract.Siv[]",
          "name": "",
          "type": "tuple[]"
        }
      ],
      "stateMutability": "view",
      "type": "function"
    }
  ],
  "bytecode": "0x6080604052348015600f57600080fd5b506112438061001f6000396000f3fe608060405234801561001057600080fd5b506004361061004c5760003560e01c8063813a10db146100515780638d222e1f1461006f578063ca8478c91461008b578063f74ddfe4146100a7575b600080fd5b6100596100c5565b6040516100669190610bab565b60405180910390f35b61008960048036038101906100849190610c39565b61039a565b005b6100a560048036038101906100a09190610dae565b61047b565b005b6100af610601565b6040516100bc9190610bab565b60405180910390f35b60606000808054905067ffffffffffffffff8111156100e7576100e6610c83565b5b60405190808252806020026020018201604052801561012057816020015b61010d610941565b8152602001906001900390816101055790505b5090506000805b6000805490508110156102e657600015156000828154811061014c5761014b610e0a565b5b906000526020600020906004020160030160009054906101000a900460ff161515036102d9576000818154811061018657610185610e0a565b5b9060005260206000209060040201604051806080016040529081600082015481526020016001820160009054906101000a900473ffffffffffffffffffffffffffffffffffffffff1673ffffffffffffffffffffffffffffffffffffffff1673ffffffffffffffffffffffffffffffffffffffff16815260200160028201805461020f90610e68565b80601f016020809104026020016040519081016040528092919081815260200182805461023b90610e68565b80156102885780601f1061025d57610100808354040283529160200191610288565b820191906000526020600020905b81548152906001019060200180831161026b57829003601f168201915b505050505081526020016003820160009054906101000a900460ff1615151515815250508383815181106102bf576102be610e0a565b5b602002602001018190525081806102d590610ec8565b9250505b8080600101915050610127565b5060008167ffffffffffffffff81111561030357610302610c83565b5b60405190808252806020026020018201604052801561033c57816020015b610329610941565b8152602001906001900390816103215790505b50905060005b828110156103905783818151811061035d5761035c610e0a565b5b602002602001015182828151811061037857610377610e0a565b5b60200260200101819052508080600101915050610342565b5080935050505090565b3373ffffffffffffffffffffffffffffffffffffffff166001600084815260200190815260200160002060009054906101000a900473ffffffffffffffffffffffffffffffffffffffff1673ffffffffffffffffffffffffffffffffffffffff160361047757806000838154811061041557610414610e0a565b5b906000526020600020906004020160030160006101000a81548160ff0219169083151502179055507fd9d9eee60524f2c348f10aaa5f020020ac3f463ab8cbc2c1b93571e0285bc9cf828260405161046e929190610f2e565b60405180910390a15b5050565b600080805490509050600060405180608001604052808381526020013373ffffffffffffffffffffffffffffffffffffffff16815260200185815260200184151581525090806001815401808255809150506001900390600052602060002090600402016000909190919091506000820151816000015560208201518160010160006101000a81548173ffffffffffffffffffffffffffffffffffffffff021916908373ffffffffffffffffffffffffffffffffffffffff160217905550604082015181600201908161054e9190611103565b5060608201518160030160006101000a81548160ff0219169083151502179055505050336001600083815260200190815260200160002060006101000a81548173ffffffffffffffffffffffffffffffffffffffff021916908373ffffffffffffffffffffffffffffffffffffffff1602179055507ff1ff9d7e02a223e5fa72c94f54ecf77453305e5c6a93f7e3cc46a699ef302c1233826040516105f49291906111e4565b60405180910390a1505050565b60606000808054905067ffffffffffffffff81111561062357610622610c83565b5b60405190808252806020026020018201604052801561065c57816020015b610649610941565b8152602001906001900390816106415790505b5090506000805b60008054905081101561088d573373ffffffffffffffffffffffffffffffffffffffff166001600083815260200190815260200160002060009054906101000a900473ffffffffffffffffffffffffffffffffffffffff1673ffffffffffffffffffffffffffffffffffffffff16148015610714575060001515600082815481106106f1576106f0610e0a565b5b906000526020600020906004020160030160009054906101000a900460ff161515145b15610880576000818154811061072d5761072c610e0a565b5b9060005260206000209060040201604051806080016040529081600082015481526020016001820160009054906101000a900473ffffffffffffffffffffffffffffffffffffffff1673ffffffffffffffffffffffffffffffffffffffff1673ffffffffffffffffffffffffffffffffffffffff1681526020016002820180546107b690610e68565b80601f01602080910402602001604051908101604052809291908181526020018280546107e290610e68565b801561082f5780601f106108045761010080835404028352916020019161082f565b820191906000526020600020905b81548152906001019060200180831161081257829003601f168201915b505050505081526020016003820160009054906101000a900460ff16151515158152505083838151811061086657610865610e0a565b5b6020026020010181905250818061087c90610ec8565b9250505b8080600101915050610663565b5060008167ffffffffffffffff8111156108aa576108a9610c83565b5b6040519080825280602002602001820160405280156108e357816020015b6108d0610941565b8152602001906001900390816108c85790505b50905060005b828110156109375783818151811061090457610903610e0a565b5b602002602001015182828151811061091f5761091e610e0a565b5b602002602001018190525080806001019150506108e9565b5080935050505090565b604051806080016040528060008152602001600073ffffffffffffffffffffffffffffffffffffffff168152602001606081526020016000151581525090565b600081519050919050565b600082825260208201905092915050565b6000819050602082019050919050565b6000819050919050565b6109c0816109ad565b82525050565b600073ffffffffffffffffffffffffffffffffffffffff82169050919050565b60006109f1826109c6565b9050919050565b610a01816109e6565b82525050565b600081519050919050565b600082825260208201905092915050565b60005b83811015610a41578082015181840152602081019050610a26565b60008484015250505050565b6000601f19601f8301169050919050565b6000610a6982610a07565b610a738185610a12565b9350610a83818560208601610a23565b610a8c81610a4d565b840191505092915050565b60008115159050919050565b610aac81610a97565b82525050565b6000608083016000830151610aca60008601826109b7565b506020830151610add60208601826109f8565b5060408301518482036040860152610af58282610a5e565b9150506060830151610b0a6060860182610aa3565b508091505092915050565b6000610b218383610ab2565b905092915050565b6000602082019050919050565b6000610b4182610981565b610b4b818561098c565b935083602082028501610b5d8561099d565b8060005b85811015610b995784840389528151610b7a8582610b15565b9450610b8583610b29565b925060208a01995050600181019050610b61565b50829750879550505050505092915050565b60006020820190508181036000830152610bc58184610b36565b905092915050565b6000604051905090565b600080fd5b600080fd5b610bea816109ad565b8114610bf557600080fd5b50565b600081359050610c0781610be1565b92915050565b610c1681610a97565b8114610c2157600080fd5b50565b600081359050610c3381610c0d565b92915050565b60008060408385031215610c5057610c4f610bd7565b5b6000610c5e85828601610bf8565b9250506020610c6f85828601610c24565b9150509250929050565b600080fd5b600080fd5b7f4e487b7100000000000000000000000000000000000000000000000000000000600052604160045260246000fd5b610cbb82610a4d565b810181811067ffffffffffffffff82111715610cda57610cd9610c83565b5b80604052505050565b6000610ced610bcd565b9050610cf98282610cb2565b919050565b600067ffffffffffffffff821115610d1957610d18610c83565b5b610d2282610a4d565b9050602081019050919050565b82818337600083830152505050565b6000610d51610d4c84610cfe565b610ce3565b905082815260208101848484011115610d6d57610d6c610c7e565b5b610d78848285610d2f565b509392505050565b600082601f830112610d9557610d94610c79565b5b8135610da5848260208601610d3e565b91505092915050565b60008060408385031215610dc557610dc4610bd7565b5b600083013567ffffffffffffffff811115610de357610de2610bdc565b5b610def85828601610d80565b9250506020610e0085828601610c24565b9150509250929050565b7f4e487b7100000000000000000000000000000000000000000000000000000000600052603260045260246000fd5b7f4e487b7100000000000000000000000000000000000000000000000000000000600052602260045260246000fd5b60006002820490506001821680610e8057607f821691505b602082108103610e9357610e92610e39565b5b50919050565b7f4e487b7100000000000000000000000000000000000000000000000000000000600052601160045260246000fd5b6000610ed3826109ad565b91507fffffffffffffffffffffffffffffffffffffffffffffffffffffffffffffffff8203610f0557610f04610e99565b5b600182019050919050565b610f19816109ad565b82525050565b610f2881610a97565b82525050565b6000604082019050610f436000830185610f10565b610f506020830184610f1f565b9392505050565b60008190508160005260206000209050919050565b60006020601f8301049050919050565b600082821b905092915050565b600060088302610fb97fffffffffffffffffffffffffffffffffffffffffffffffffffffffffffffffff82610f7c565b610fc38683610f7c565b95508019841693508086168417925050509392505050565b6000819050919050565b6000611000610ffb610ff6846109ad565b610fdb565b6109ad565b9050919050565b6000819050919050565b61101a83610fe5565b61102e61102682611007565b848454610f89565b825550505050565b600090565b611043611036565b61104e818484611011565b505050565b5b818110156110725761106760008261103b565b600181019050611054565b5050565b601f8211156110b75761108881610f57565b61109184610f6c565b810160208510156110a0578190505b6110b46110ac85610f6c565b830182611053565b50505b505050565b600082821c905092915050565b60006110da600019846008026110bc565b1980831691505092915050565b60006110f383836110c9565b9150826002028217905092915050565b61110c82610a07565b67ffffffffffffffff81111561112557611124610c83565b5b61112f8254610e68565b61113a828285611076565b600060209050601f83116001811461116d576000841561115b578287015190505b61116585826110e7565b8655506111cd565b601f19841661117b86610f57565b60005b828110156111a35784890151825560018201915060208501945060208101905061117e565b868310156111c057848901516111bc601f8916826110c9565b8355505b6001600288020188555050505b505050505050565b6111de816109e6565b82525050565b60006040820190506111f960008301856111d5565b6112066020830184610f10565b939250505056fea2646970667358221220839a0a67ccea49920926b21db7b9de1e380d29aa3b038a9a2d2b2f27496e3c0264736f6c634300081c0033",
  "linkReferences": {},
  "deployedLinkReferences": {}
}